:020000040800F2
:1000000000040020390200083B0200083B020008FF
:100010003B0200083B0200083B0200083B020008CC
:100020003B0200083B0200083B020008D15F0008C9
:100030003B0200083B0200083B0200083B020008AC
:100040003B0200083B0200083B0200083B0200089C
:100050003B0200083B0200083B0200083B0200088C
:100060003B0200083B0200083B020008811F000819
:10007000F11F000871200008F1200008712100081C
:10008000F1210008712200083B0200083B02000831
:10009000412800083B0200083B0200083B02000820
:1000A0003B0200083B0200083B0200083B0200083C
:1000B000F12500083B0200083B0200083B02000853
:1000C0003B0200083B0200083B0200083B0200081C
:1000D0003B0200083B0200083B0200083B0200080C
:1000E0003B0200083B0200083B0200083B020008FC
:1000F0003B0200083B0200083B0200083B020008EC
:100100003B020008612500083B0200083B02000892
:100110003B0200083B0200083B0200083B020008CB
:10012000F122000861230008E1230008612400088F
:10013000E12400083B0200083B0200083B020008E3
:100140003B0200083B0200083B0200083B0200089B
:100150003B0200083B0200083B0200083B0200088B
:1001600072B6264880F30888254880F30988254818
:1001700025490860022080F31488BFF36F8F01F0D7
:10018000E7FB02F015FD4FF0553020491B4A914224
:100190003CBF41F8040BFAE71D49194A91423CBFA4
:1001A00041F8040BFAE71B491B4A1C4B9A423EBF1D
:1001B00051F8040B42F8040BF8E700201849194ADB
:1001C00091423CBF41F8040BFAE701F0D9FB01F082
:1001D000C7FB154C154DAC4203DA54F8041B884795
:1001E000F9E70EF0ADFD124C124DAC4203DA54F8B3
:1001F000041B8847F9E701F0BBBB000000040020A6
:10020000000800200000000808ED00E000000020C9
:10021000000400209033010800080020E4080020BA
:10022000E8080020102E002060010008600100088E
:10023000600100086001000892E700F000F8FEE7A6
:100240002DE9F04FC1F80CD0C3689D46BDE8F08F92
:10025000002383F311882846A047002004F088FA81
:10026000FEE703F0FDFD00DFFEE70000032A10B506
:1002700016D940EA010C1CF0030F04460B4622D1AC
:1002800019462046D1F800E0D0F800C00433F44508
:1002900004F1040417D1043A032A20461946EFD882
:1002A000541EA2B100F1FF3C013901E0C3180CD08B
:1002B0001CF801EF11F8012FA4EB0C039645F5D0C3
:1002C000AEEB020010BD541EECE7184610BD104600
:1002D00010BD00BF844641EA000313F0030349D177
:1002E000403A23D30B6803604B6843608B6883609C
:1002F000CB68C3600B6903614B6943618B698361A0
:10030000CB69C3610B6A03624B6A43628B6A836287
:10031000CB6AC3620B6B03634B6B43638B6B83636F
:10032000CB6BC36340304031403ADBD230320BD329
:100330000B6803604B6843608B688360CB68C36065
:1003400010301031103AF3D20C3205D351F8043B7F
:1003500040F8043B043AF9D2043208D0D2071CBF5B
:1003600011F8013B00F8013B01D30B880380604684
:10037000704700BF082A13D38B07B1D010F00303D6
:10038000AED0C3F10403D21ADB071CBF11F8013B46
:1003900000F8013BA4D331F8023B20F8023B9FE771
:1003A000043AD9D3013A11F8013B00F8013BF9D2E4
:1003B0000B7803704B7843708B788370604670477E
:1003C000830730B548D0541E002A3FD00346CAB236
:1003D00001E0013C3AD303F8012B9D07F9D1032C2E
:1003E0002DD9CDB245EA05250F2C45EA054536D96C
:1003F000A4F1100222F00F0C03F1200EE6444FEAA4
:10040000121C03F1100242E9045542E90255103270
:100410007245F8D10CF1010214F00C0F03EB02123B
:1004200004F00F0C13D0ACF1040323F003030433E6
:10043000134442F8045B9342FBD10CF003042CB14B
:10044000CAB21C4403F8012B9C42FBD130BD644668
:100450001346002CF4D1F9E703461446BFE71A46C9
:10046000A446E0E711F0FF01034644D0820732D1F1
:1004700010B5046841EA012E4EEA0E4E8EEA0402DF
:10048000A2F1013323EA0203A4F1013222EA0402B9
:10049000134313F0803F0FD150F8044F84EA0E0C41
:1004A000A4F10133ACF1013223EA040322EA0C0285
:1004B000134313F0803FEFD0037823B936E010F8F0
:1004C000013F002B32D09942F9D110BD8A4211D0A0
:1004D0009A071846CCD0184613F8012B002AF5D1FC
:1004E000104670479907184607D01846027801331E
:1004F000002AF7D170478207F7D10268A2F10133D1
:1005000023EA020313F0803F08D150F8042FA2F130
:10051000013323EA020313F0803FF6D00378002B67
:10052000E8D010F8013F002BFBD17047184610BDF2
:1005300080EA010C1CF0030F37D110F0030C20F0FF
:10054000030021F0030150F8042B08BF51F8043BCD
:100550000ED08CF0030C6FF07F434FEACC0C23FAE3
:100560000CFC51F8043B42EA0C0243EA0C0300BFC6
:10057000A2F1013C9A4201BF2CEA020C1CF0803F20
:1005800050F8042B51F8043BF2D04FEA02604FEAD6
:100590001222012828BFB0EB036F08BF1B0AF4D05A
:1005A00003F0FF03000EC01A704710F0030F0AD0CB
:1005B00010F8012B11F8013B012A28BF9A42F4D010
:1005C000A2EB030070474DF8045D50F8042B01F0D6
:1005D000030521F0030151F8043B022D26D04DD82C
:1005E00022F07F45B5EB132FA2F1013C2CEA020C5F
:1005F0000DD11CF0803C08BF51F8043B0AD185EABC
:100600000205B5EB036F0CD150F8042BE8E74FEA75
:1006100013235BE03CF07F4C54D10B784FEA12651A
:1006200054E04FEA126503F0FF034FE04FEA024542
:10063000A2F1013C4FEA15452CEA020CB5EB134F31
:1006400018D11CF0803C08BF51F8043B07D185EA63
:100650000205B5EB034F09D150F8042BE6E75FEA3A
:100660000C4C2FD10B884FEA12452FE04FEA034381
:100670004FEA12454FEA134328E000BF02F0FF059E
:10068000B5EB136FA2F1013C2CEA020C0DD11CF06A
:10069000803C08BF51F8043B0AD185EA0205B5EB5E
:1006A000032F0AD150F8042BE8E74FEA13630DE05B
:1006B00012F0FF0F06D051F8043B4FEA122523F049
:1006C0007F4303E04FF0000020BC704705F0FF02BD
:1006D00003F0FF00012828BF904204BF2D0A1B0A27
:1006E000F4D0A2EB000020BC704700BF80EA0102FA
:1006F000844612F0030F4FD111F0030F32D14DF8A1
:10070000044D11F0040F51F8043B0BD0A3F101325A
:100710009A4312F0803F04BF4CF8043B51F8043B6D
:1007200016D100BF51F8044BA3F101329A4312F0E5
:10073000803FA4F101320BD14CF8043BA24312F0EC
:10074000803F04BF51F8043B4CF8044BEAD02346E9
:100750000CF8013B13F0FF0F4FEA3323F8D15DF89B
:10076000044B704711F0010F06D011F8012B0CF863
:10077000012B002A08BF704711F0020FBFD031F8DB
:10078000022B12F0FF0F16BF2CF8022B8CF8002062
:1007900012F47F4FB3D1704711F8012B0CF8012BE5
:1007A000002AF9D1704700BF20F0030110F00300C8
:1007B000C0F1000051F8043B00F1040C4FEACC0CEE
:1007C0006FF000021CBF22FA0CF213434FF0010C31
:1007D0004CEA0C2C4CEA0C4CA3EB0C0222EA030270
:1007E00012EACC1204BF51F8043B0430F4D0C2F139
:1007F000000102EA0102B2FA82F2C2F11F0200EB2A
:10080000D2007047A2B330B540EA0104A40786467F
:100810000B462AD004780B78A3422FD1012A0CD0A2
:10082000844654B11CF8014F11F8013F9C4225D178
:100830006FEA0C031344C318F3D1002030BD1946EE
:10084000DEF800407046A4F1013323EA040C0B46A5
:1008500053F8045B0EF1040EAC420BD1043AECD019
:100860001CF0803FE9D170461946032AE7D8D1E74A
:100870001046704704780B789C42D1D0E01A30BD06
:1008800084460078B8B100B58E46097872460B46AA
:1008900019B90BE012F8013F43B19842FAD113782D
:1008A000002B14BF604600205DF804FB1CF8010F0C
:1008B0000028EBD1F3E7704710B58E46017899B167
:1008C000044684469EF8000058B17246034602E092
:1008D00012F8013F2BB18B42FAD11CF8011F0029FD
:1008E000F2D1ACEB040010BD084610BD00000000C2
:1008F000C3689B0F0CD0012B08D18368C2881804F1
:1009000000F47C10104301308002704700207047D3
:1009100040F6FC7330B4D0E9014503EA8500C4F326
:10092000C23140EA9470C5F3034202310130093A02
:100930008840904030BC704700000000000000007C
:100940000079053818BF0120704700BF0000000083
:100950000379052B06D14FF40073826A0020C1E9A8
:1009600000327047012070470000000000000000C6
:1009700000207047000000000000000000000000A0
:1009800090F8742002F06002202A01D00020704705
:1009900090F875200346212A0BD81F2AF6D9072183
:1009A000002210B4074C0120C3E91A411A6710BC99
:1009B0007047222AEAD100220120C3E91A221A67CD
:1009C000704700BF10080020000000000000000079
:1009D000704700BF000000000000000000000000A1
:1009E00090F87630074A80F87E3043F0800310B5E7
:1009F000D364436804461B680BB101219847032365
:100A0000237010BD005C00400000000000000000EA
:100A1000F0B40124B0F808C000EB8105ED688C400B
:100A200044EA0C0404812C8A00279C4228BF1C46FF
:100A300068691B4EC0E9022447600360336D0801FA
:100A400003F1804303F5C043C05803EB01135C601E
:100A5000A4B100F1005000F54050400004F1FF3C0B
:100A60004FEA5C0C031D03EB8C0C00E004330446DE
:100A700032F8025B9C4518462560F7D1F0BC084A65
:100A800052F8213023F4F04323F0400383F0300385
:100A900043F4004343F0800342F82130704700BF25
:100AA000005C0040000000000000000000000000AA
:100AB000436BD3F88C2410680178042902D1197A89
:100AC000022900D070474FF0010C10B51179B0F831
:100AD00008E00CFA01F212EA0E0200D010BDD3E9D0
:100AE00015C4A44506D0224652F8043BBDE8104088
:100AF000FFF78EBF1B6D002BF5D01346F6E700BF46
:100B000038B590F864300446152B2AD8DFE803F096
:100B10000B29292929290B29290B0B0B29292929DB
:100B200029292929382A48F280001B4963680A6864
:100B30001D6822F4F04222F0400282F010020243CB
:100B40000A600B6823F4904323F0700383F480530E
:100B500003430B6015B106212046A847062384F8FD
:100B6000643038BD0B22302380F8642083F3118871
:100B700000231A461946FFF74BFF81F3118838BD51
:100B8000C3689B695B68002BEBD1036F03B1984787
:100B9000002384F8643038BD005C00400000000091
:100BA00001F001038A0748BF43F002034A0748BF28
:100BB00043F008030A0748BF43F00403CA0648BFCE
:100BC00043F010038A0648BF43F020038A05426BB6
:100BD00048BF43F0400313434363704700000000E5
:100BE0004FF00E0C2DE9F04100270D461646D0E9D6
:100BF0001123D2E9008EDEF8001021F00F01CEF8AB
:100C00000010527B0CFA02F2C8F80420596B996369
:100C1000DF62FFF7C5FF012D01D8BDE8F08140F28A
:100C20004C420446836C9F60DA60596B11F04500BA
:100C3000FBD011F0050F986303D15B693360BDE809
:100C4000F0812046BDE8F041FFF7AABF0000000098
:100C5000034B986880F40060C0F3C020704700BF69
:100C6000001C014000000000000000000000000027
:100C7000FEE700BF000000000000000000000000D0
:100C8000302310B483F311880B4B49425C68201A5F
:100C900008401968821A8A4207D3944205D35A60E1
:100CA000002383F3118810BC70470020002383F3D6
:100CB000118810BC704700BFE01000200000000049
:100CC00003681A1D02601B68184700BF000000007F
:100CD00002460368191D0160586853F8081B136029
:100CE000084700BF000000000000000000000000F6
:100CF0000346026830B4111D50681960146802F18F
:100D00000C0591681D60234630BC184700000000A8
:100D10000246036830B4D3E901011C1D14601C684D
:100D200003F110051560DA68234630BC184700BF90
:100D30008446036830B4D3E901011C1DDA68CCF89D
:100D400000401C6803F11405CCF800501B69A44650
:100D500030BC604700000000000000000000000000
:100D6000064B49425A68101A08401968884203D352
:100D7000824201D35860704700207047E010002085
:100D8000022906D0032906D00129074818BF0020F0
:100D9000704706487047032A03D8054800EBC20095
:100DA00070470020704700BFB4270108682701087A
:100DB0003C280108000000000000000000000000C6
:100DC00038B5302383F31188204BD3F88C24106876
:100DD0000178042902D1197A022903D0002383F370
:100DE000118838BD4FF0010C1179B0F808E00CFA09
:100DF00001F212EA0E0FF1D1D3E915429442EDD17E
:100E00001C6D002CEAD0DC6E002CE7D0043CA41A48
:100E1000E4D014601C6D1D6E013C1C65DC6D154436
:100E2000A5424FF000045D6528BF9D6EDC6628BFBB
:100E30005D65AA4204D052F8043BFFF7E9FDCDE717
:100E40001B6D002BF7D023462246F6E7340B00201B
:100E500010B50446034BE1B2586A0368DB68984753
:100E6000204610BDF410002000000000000000002B
:100E7000012210B43E4C3023226083F311883D4997
:100E80000A688A425DD00023126801338A42FBD18E
:100E90004A688A4241D05268013B8A42FBD1002B0A
:100EA0003BD1002383F3118802203022206082F39B
:100EB000118831480A69824249D01268013382425E
:100EC000FBD14A69824232D05268013B8242FBD157
:100ED0006BBB002383F3118803203022206082F350
:100EE000118826488A6A82423ED0126801338242C3
:100EF000FBD1CA6A82422ED05268013B8242FBD1AA
:100F00004BBB002383F3118804213022216082F33C
:100F1000118883F3118810BC7047002383F3118874
:100F200040F20113164AA380A26010BC7047002350
:100F300083F3118840F20113124AA380A26010BC0F
:100F400070474A688A4218BF0023A4D1A9E74A69BA
:100F50008242B9D1BDE7002383F3118840F2011327
:100F6000094AA380A260E0E7CA6A8242C4D1C8E706
:100F7000F410002050100020601000207810002095
:100F80003801010850010108740101080000000047
:100F90000121074A3023116083F3118862B672B6CB
:100FA00083F3118862B6002383F3118862B6704719
:100FB000F41000200000000000000000000000000D
:100FC00001224FF08041044B1A604A6A92B24B6A88
:100FD0009BB29A42FBD07047F41000200000000042
:100FE0000322014B1A607047F4100020000000003B
:100FF000054BDA6803F120018A4203D20178501CC4
:10100000D8601170704700BFF4100020000000008D
:101010000022014B1A607047C41A00200000000033
:101020000122024BC3E900339A607047241200206A
:101030000022024BC3E900339A607047241200205B
:101040000022024BC3E900339A607047241200204B
:101050000022024BC3E900339A607047241200203B
:101060000022024BC3E900339A607047241200202B
:101070000022024BC3E900339A6070471808002031
:101080000022024BC3E900339A6070471808002021
:101090000021044A044BC2E90022C3E900339160F5
:1010A0009960704718080020280800200000000000
:1010B0000021044B044AC3E90131C2E900221B604C
:1010C000704700BF18080020000800200000000042
:1010D0000021044B044AC3E90131C2E900221B602C
:1010E000704700BF18080020000800200000000022
:1010F0000020064A064B0749C3E90033C1E9001145
:101100001260526090609860704700BF180800201D
:101110002808002000080020000000000000000057
:10112000054BDA6803F120018A4203D24121501CA9
:10113000D8601170704700BFF4100020000000005C
:10114000054BDA6803F120018A4203D24221501C88
:10115000D8601170704700BFF4100020000000003C
:10116000054BDA6803F120018A4203D24321501C67
:10117000D8601170704700BFF4100020000000001C
:10118000F0B40227384A394C30208AB01260276008
:1011900080F3118801234FF0FF3607930023116875
:1011A000334D0591E968CDE90836069105A911602E
:1011B00083F3118880F31188ED6802970195156813
:1011C000049600956D460393156083F3118880F3B0
:1011D00011881668964237D083F311880323236061
:1011E00080F31188134601E08B4237D018461B6804
:1011F0009342F9D1002383F31188302181F31188C0
:101200001068904220D083F311880423236081F377
:101210001188154B01E0AB4223D019461B6893425D
:10122000F9D1002383F31188302181F311881168EB
:1012300091421FBF40F201120E49A280A16083F3C8
:1012400011880AB0F0BC704740F201120A49A2802E
:10125000A16083F311880AB0F0BC7047059B03605E
:10126000C8E7009B0B60DCE708080020F4100020B2
:10127000501000209C0101089001010800000000AE
:10128000302383F311880023024AD268D36383F3A7
:10129000118870475010002000000000000000007E
:1012A000302383F311880023024AD268D36383F387
:1012B000118870475010002000000000000000005E
:1012C000302383F311880023024AD268D36383F367
:1012D000118870475010002000000000000000003E
:1012E000302383F311880023024AD268D36383F347
:1012F000118870475010002000000000000000001E
:10130000302383F311880023024AD268D36383F326
:1013100011887047501000200000000000000000FD
:10132000302383F311880023044AD268D36383F304
:101330001188034A034B12601B6070475010002055
:10134000080800200C080020000000000000000039
:10135000054BDA6803F120018A4203D20178501C60
:10136000D8601170704700BFF4100020000000002A
:1013700000200C4B0C4AD91D21F00701CB1AC3F5F4
:1013800006630833DB08D1604B600133DB009360F8
:1013900002F11403C2E90533516010601061086066
:1013A000D061704740120020F011002000000000C2
:1013B00000224FF4D8700421024BC3E90020C3E996
:1013C000021270471412002000000000000000000C
:1013D000704700BF00000000000000000000000097
:1013E000302383F3118891F828300C2B10D8DFE8D4
:1013F00003F02A0F0F260B070F0B0F0F0F0F0B0019
:10140000CA6A936801339360D1E9003213605A606D
:10141000002210B44FF0FF348B698868CC6281F8E9
:1014200028201B689A688242FBD25A680020C1E9D2
:1014300000321160596080F3118810BC704700229F
:10144000CB6A1A60E4E7002383F31188704700BF7A
:10145000184B026810B4DC68C3688242236425D04C
:10146000616C4BB11A68934203D09268914238BFC5
:101470001146DB68002BF5D14FF0000CA16003682A
:101480001A68196C9C68026050609A69C0E9023160
:10149000186483F828C012689168A142FBD2516891
:1014A00010BCC3E900210B6053607047002310BCDF
:1014B0009360704750100020000000000000000002
:1014C0002DE9F041302306468846174683F31188FC
:1014D000856CEB6B1BBB716C4C686368002BFCD19B
:1014E0000E22206820F00F002060487B09688240AF
:1014F0004A60EB63EB62686B10F480700AD04FF0C7
:10150000FF32AA6383F31188B8F1010F1CD8184683
:10151000BDE8F08180F311880120BDE8F08102462A
:1015200003250124144BD968186842F83C1F81F840
:101530002850CA62026853601A6080F82840D86058
:10154000FEF77EFEB56CC6E740F24C41B26C93608C
:10155000D160516B11F04503FBD0936311F005038B
:1015600004D1526918463A60BDE8F0813046FFF771
:1015700017FB0120CCE700BF501000200000000046
:10158000302310B583F31188104BD96818688A6826
:101590008468944215D3046863601C600124D86099
:1015A000002380F8284081F828308B691B689C68EC
:1015B000A242FBD95A68C1E9003211605960FEF7B6
:1015C0003FFE002383F3118810BD00BF50100020A0
:1015D00038B51A4B3022DC6882F31188826B00F137
:1015E00034052560E1626260146090F8282084630D
:1015F0000E2A13D00C224FF0010CD968186881F81C
:101600002820026853601A6080F828C0D860FEF76E
:1016100017FEE06A002383F3118838BD0021826938
:10162000856880F8281012689168A942FBD2516839
:10163000C0E9002108605060DCE700BF50100020C6
:1016400010B504464121FFF7C3FF42212046FFF7B2
:10165000BFFF43212046FFF7BBFF2046BDE81040F7
:101660004421FFF7B5BF00BF0000000000000000EC
:1016700010B53023044683F31188164A9368013B62
:10168000002B93600DDB002383F31188124BDA6883
:1016900003F120018A4203D22178501CD8601170D6
:1016A00010BD4FF0050E4FF0010C0C4B5068D9687F
:1016B000C1E90020CA620160186881F828E0516021
:1016C000026853601A6080F828C0D860FEF7B8FD41
:1016D000D9E700BF24120020F41000205010002091
:1016E000302370B583F311881E4BD9680A6B01F162
:1016F000300C944518BF4FF0000EC86213D191F81A
:101700002A202AB30F224FF0010C186881F82820F4
:101710000268536080F828C01A60BDE87040D86045
:10172000FEF78EBD22461468906996680C6382F8B5
:1017300028E000688568B542FBD2456864451060C2
:1017400055602A604260EDD191F82A20002AD9D153
:1017500091F829209207D5D1D1E904200260506088
:10176000D0E700BF50100020000000000000000083
:10177000F8B50D4C3023E76883F311880326012563
:10178000E168206881F8286003685C6080F8285070
:101790002360E060FEF754FDFB6A002BF0D00023CD
:1017A00083F31188F8BD00BF501000200000000036
:1017B0002DE9F041174FFB6893F829305A0727D4D9
:1017C0004FF0300805260125134C07E0002383F372
:1017D0001188FB6893F829305B0719D488F31188C6
:1017E000A368013B002BA360F0DAF96863683868EE
:1017F000CC62C1E90043196081F828600368616028
:101800005F6080F828503B60F860FEF719FDDDE767
:10181000BDE8F081501000203012002000000000D0
:101820002DE9F04130274FF0010800260546184CFD
:1018300087F31188E1682068D1F808C083686345A0
:1018400013D30268546080F828808B692260E060BE
:1018500081F828601B689A689445FBD95A68C1E9E9
:10186000003211605960FEF7EBFC86F31188FFF738
:1018700087FEFFF785FEFFF783FE2B68E2680433DF
:101880002B6092F829305B07D2D5BDE8F08100BF0C
:1018900050100020000000000000000000000000C8
:1018A00038B50D46B0B10446286020461049FFF710
:1018B00003F8215C0444222912D020460C49FEF78B
:1018C000DFFF98B10023421C2A600370237823B104
:1018D000204638BD0C68002CE7D10024204638BDD6
:1018E00001342046FEF7BEFD0028EBD12860EDE76D
:1018F000AC01010800000000000000000000000032
:101900000246034B03490448C3E908120EF060BACB
:10191000F4100020510E0008AC2501080000000062
:101920000246034B03490448C3E908120EF050BABB
:10193000F4100020510E0008AC2001080000000047
:10194000002101480CF0BCBF241200200000000060
:10195000704700BF00000000000000000000000011
:10196000704700BF00000000000000000000000001
:10197000FEE700BF000000000000000000000000C3
:10198000F8B5154D154F16491648174A05F170045C
:1019900081420DD90346043A52F8046F43F8046BB0
:1019A0009942F9D84B1E1B1A23F003030433184441
:1019B000874207D97A1E121A22F00302002104324C
:1019C000FEF7FEFCA54205D0D5E90420D5E90617AF
:1019D0001035DDE7F8BD00BFDC200108102E002027
:1019E000102E0020102E002074340108000000008A
:1019F0000020704700000000000000000000000010
:101A00004FF0010C70B50025468900EB8104E468B5
:101A10000CFA01FE4EEA060EA0F80AE0A069C0E941
:101A20000152036033B1628A013B1344B3FBF2F30A
:101A30001FFA83FC084AA0F80CC052F8213023F4A6
:101A4000904323F0700383F4405343F4004343F086
:101A5000800342F8213070BD005C004000000000AF
:101A6000436BD3F88C2410680178042900D07047A8
:101A7000197A0229FBD14FF0010C00B55179B0F869
:101A80000AE00CFA01F212EA0E0F01D05DF804FB35
:101A9000D3E9072C624506D04FF480735DF804EB60
:101AA0000432FFF7ADBF9B69002BEFD1F4E700BF15
:101AB00070B590F86430044613B1002380F86430A8
:101AC000BA4B04F174021B6D03F1804303F5C0436C
:101AD00003EB01139B6803F1005303F540535B00D4
:101AE00003F11000194604330968834222F8021BEF
:101AF000F8D163689B6803B320469847E8B1E36E6A
:101B000094F87410B4F87A209A423CBF1346E26607
:101B10000A0600F1D780002B00F0918015223023B7
:101B200084F8642083F311880021D4E91A23204625
:101B3000FFF766FF81F3118870BD94F8741011F0FF
:101B400060061CD194F8752001F07F0343EA02235C
:101B500040F20232934200F065814FD8B3F5807FA6
:101B600000F014812AD9B3F5817F00F02781B3F505
:101B7000407F04D194F87630012B00F0D28048F2F7
:101B800080008A4963680A681D6822F4F04222F0E6
:101B9000400282F0100202430A600B6823F4904373
:101BA00023F0700383F4805303430B6015B10621C7
:101BB0002046A847062384F8643070BD012B5BD013
:101BC000022B4BD194F9780094F8782000287748BC
:101BD00002F00F0250F82220C0F2938012F440521B
:101BE000CDD0B2F5805F4FF002004FF0000200F060
:101BF00093806F4D2267C4E91A5083E7B3F5006FF5
:101C000000F0088140D9B3F5106F31D12378042B4F
:101C100000F0918094F876304BB10421626884F82A
:101C20007F302170136813B10221204698470023AA
:101C3000C4E91A3394F8741023670B0652D40B22AC
:101C4000302384F8642083F31188002320461A4649
:101C50001946FEF7DDFE81F3118870BD002B8ED191
:101C6000022204F17C002367A0661346E26649E77E
:101C700040F60242934282D1022200204D4BC4E939
:101C80001B20A36613463DE7B3F5A06F00F0BD80AF
:101C9000A3F5C063012B3FF672AF6268204655681A
:101CA000B4F8783094F8762094F87710A847002894
:101CB0003FF465AFD0E9003294F87410C4E91A23F8
:101CC00026671FE773B10922302384F8642083F369
:101CD00011880021D4E91A232046FEF799FE81F3EA
:101CE000118870BD1422302384F8642083F3118896
:101CF000002320461A461946FFF782FE81F3118819
:101D000070BD12F030023FF43AAF102A4FF00200DB
:101D10004FF000027FF46DAF274D2267C4E91A50DF
:101D2000F0E6B4F87C30C4E91B6643F00203A66613
:101D3000A4F87C3081E7302383F31188402101220D
:101D4000A368C4E90566C4E90766C4E9096603F047
:101D500001132661A360C4F88410930003F180434B
:101D600003F5B84319680132082A19601E60F4D1DE
:101D700086F311880321636884F87F6021701B68F3
:101D8000002B3FF447AF2046984743E794F876305E
:101D9000012B7FF4F4AEB4F87C30C4E91B6623F069
:101DA0000203A666A4F87C3047E700BF005C004051
:101DB000581B010870280108841E010894F8763029
:101DC000002B7FF4DCAE94F8782012F00F0317D0CC
:101DD0009B0003F1804303F5B84312F0800F1A68AB
:101DE0003DD102F44052B2F5405F09D01A6822F4A6
:101DF000F04222F0400242F4204242F080021A6097
:101E00000023C4E91A33236717E7244BC4E91A6691
:101E1000236712E7012204F17F03A36626671346B6
:101E2000E2666FE694F87630002B7FF4A8AE94F863
:101E3000783013F00F02E3D0194813F0800F50F8F8
:101E400022301DD123F4904323F0700383F4805398
:101E500043F4004343F0800340F82230D0E702F01F
:101E60003002302ACCD01A6822F4F04222F040022C
:101E700082F0200242F4004242F080021A60BFE782
:101E800023F4F04323F0400383F0100343F40043B2
:101E900043F0800340F82230B2E700BFE1090008B8
:101EA000005C004000000000000000000000000096
:101EB00038B590F864300446152B1FD8DFE803F0DE
:101EC0001F1E1E1E1E1E1F1E1E0B103E1E1E1E1E31
:101ED0001E1E1E1E1F1FC36EB0F87A20934234D3FD
:101EE0001422302384F8642083F3118800232046D1
:101EF0001A461946FFF784FD81F3118838BD48F270
:101F000080001C4963680A681D6822F4F04222F0D0
:101F1000400282F0100202430A600B6823F49043EF
:101F200023F0700383F4805303430B6015B1062143
:101F30002046A847062384F8643038BD036F03B1F8
:101F40009847002384F8643038BDC268118AB3FB17
:101F5000F1F201FB12310029C2D1302383F3118841
:101F60000B460A46FEF754FD81F311880A2384F8D4
:101F7000643038BD005C004000000000000000003C
:101F800008B5154B19689A6801F00E01114205D089
:101F9000124A596093680BB1D0689847302383F395
:101FA00011880F4B5B6813F4006302D183F311882F
:101FB00008BDEFF309834FF08072203BDA6183F3B1
:101FC0000988084A1168D2688968926891428CBF72
:101FD000054A064A9A6108BD0000024040110020EF
:101FE00000ED00E0501000206302000866020008C7
:101FF000164B10B51968DA69090901F00E01114292
:1020000006D013480A0104695A600CB14069A04720
:10201000302383F311880F4B5B6813F4006302D104
:1020200083F3118810BDEFF309834FF08072203BDA
:10203000DA6183F30988084A1168D268896892686E
:1020400091428CBF054A064A9A6110BD00000240C9
:102050004011002000ED00E0501000206302000855
:102060006602000800000000000000000000000000
:10207000164B10B519681A6B090A01F00E011142CE
:1020800006D013480A0284695A600CB1C069A0479F
:10209000302383F311880F4B5B6813F4006302D184
:1020A00083F3118810BDEFF309834FF08072203B5A
:1020B000DA6183F30988084A1168D26889689268EE
:1020C00091428CBF054A064A9A6110BD0000024049
:1020D0004011002000ED00E05010002063020008D5
:1020E0006602000800000000000000000000000080
:1020F000164B10B519685A6C090B01F00E0111420C
:1021000006D013480A03046A5A600CB1406AA0471B
:10211000302383F311880F4B5B6813F4006302D103
:1021200083F3118810BDEFF309834FF08072203BD9
:10213000DA6183F30988084A1168D268896892686D
:1021400091428CBF054A064A9A6110BD00000240C8
:102150004011002000ED00E0501000206302000854
:1021600066020008000000000000000000000000FF
:10217000164B10B519689A6D090C01F00E01114249
:1021800006D013480A04846A5A600CB1C06AA0479A
:10219000302383F311880F4B5B6813F4006302D183
:1021A00083F3118810BDEFF309834FF08072203B59
:1021B000DA6183F30988084A1168D26889689268ED
:1021C00091428CBF054A064A9A6110BD0000024048
:1021D0004011002000ED00E05010002063020008D4
:1021E000660200080000000000000000000000007F
:1021F000164B10B51968DA6E090D01F00E01114287
:1022000006D013480A05046B5A600CB1406BA04716
:10221000302383F311880F4B5B6813F4006302D102
:1022200083F3118810BDEFF309834FF08072203BD8
:10223000DA6183F30988084A1168D268896892686C
:1022400091428CBF054A064A9A6110BD00000240C7
:102250004011002000ED00E0501000206302000853
:1022600066020008000000000000000000000000FE
:10227000174B10B51968D3F88020090E01F00E0134
:10228000114206D013480A06846B5A600CB1C06B29
:10229000A047302383F311880F4B5B6813F400636E
:1022A00002D183F3118810BDEFF309834FF08072E0
:1022B000203BDA6183F30988084A1168D26889688B
:1022C000926891428CBF064A064A9A6110BD00BFCF
:1022D000000002404011002000ED00E050100020FE
:1022E0006302000866020008000000000000000011
:1022F00008B5154B19689A6801F00E01114205D016
:10230000124A5960136C0BB1506C9847302383F319
:1023100011880F4B5B6813F4006302D183F31188BB
:1023200008BDEFF309834FF08072203BDA6183F33D
:102330000988084A1168D2688968926891428CBFFE
:10234000054A064A9A6108BD000402404011002077
:1023500000ED00E050100020630200086602000853
:10236000164B10B51968DA69090901F00E0111421E
:1023700006D013480A01846C5A600CB1C06CA047A7
:10238000302383F311880F4B5B6813F4006302D191
:1023900083F3118810BDEFF309834FF08072203B67
:1023A000DA6183F30988084A1168D26889689268FB
:1023B00091428CBF054A064A9A6110BD0004024052
:1023C0004011002000ED00E05010002063020008E2
:1023D000660200080000000000000000000000008D
:1023E000164B10B519681A6B090A01F00E0111425B
:1023F00006D013480A02046D5A600CB1406DA04724
:10240000302383F311880F4B5B6813F4006302D110
:1024100083F3118810BDEFF309834FF08072203BE6
:10242000DA6183F30988084A1168D268896892687A
:1024300091428CBF054A064A9A6110BD00040240D1
:102440004011002000ED00E0501000206302000861
:10245000660200080000000000000000000000000C
:10246000164B10B519685A6C090B01F00E01114298
:1024700006D013480A03846D5A600CB1C06DA047A2
:10248000302383F311880F4B5B6813F4006302D190
:1024900083F3118810BDEFF309834FF08072203B66
:1024A000DA6183F30988084A1168D26889689268FA
:1024B00091428CBF054A064A9A6110BD0004024051
:1024C0004011002000ED00E05010002063020008E1
:1024D000660200080000000000000000000000008C
:1024E000164B10B519689A6D090C01F00E011142D6
:1024F00006D013480A04046E5A600CB1406EA0471F
:10250000302383F311880F4B5B6813F4006302D10F
:1025100083F3118810BDEFF309834FF08072203BE5
:10252000DA6183F30988084A1168D2688968926879
:1025300091428CBF054A064A9A6110BD00040240D0
:102540004011002000ED00E0501000206302000860
:10255000660200080000000000000000000000000B
:10256000302310B483F3118800211B481B4AC36B2E
:10257000D16373B19A699C68C163D96283F82810EA
:1025800012689168A142FBD25168C3E900210B6037
:102590005360002383F31188302383F31188104B99
:1025A0005B6813F4006303D183F3118810BC704798
:1025B000EFF309834FF08072203BDA6183F30988DF
:1025C000084A10BC1168D2688968926891428CBF31
:1025D000054A064A9A617047E808002000800140D9
:1025E00000ED00E0501000206302000866020008C1
:1025F0002DE9F0474FF0804ADAF81030DAF80C2075
:102600001340DAB2D2439B07CAF810200BD4302310
:1026100083F31188544B5B6813F400636BD183F32D
:102620001188BDE8F087302383F311884FF000094B
:102630004E4E06F110074FF030083469DAF82420C6
:10264000B38BA06892B2D11A03449DB28BB283427D
:1026500035D3D4E90032B58313605A60C4F80090D2
:102660003369BB4208BFCAF80C9089F31188204631
:10267000D4E90331984788F311886269002ADCD0D5
:10268000DAF8241089B24D1BADB2AA4247D33069A3
:10269000B8425FD083689A4204D90068D21A83682E
:1026A0009342FAD34FF0FF31A260836820609A1AF8
:1026B000436863601C60C0E90142B161BBE7BC4292
:1026C00015D0C31AB3F57F4FB283A36028BF4FF470
:1026D0007F43022B38BF0223D11889B2CAF83410C5
:1026E000DAF8241089B28A1A92B29A4220D20023D0
:1026F00083F311888BE7EFF309834FF08072203B5F
:10270000DA6183F30988194A1168D2688968926886
:1027100091428CBF164A174A9A61BDE8F087736BE5
:10272000306943F00203B842736318D02A46B1E718
:1027300002224FF0804401328B189BB26363606ABF
:1027400080B2431A9BB293420BD2736B43F00103E6
:102750007363CCE7521B20460CF0AAF9C7E70022AE
:10276000F9E70146E7E700BF00ED00E05010002068
:10277000630200086602000800000000000000007C
:1027800000EB810370B5DD682B6803F00303032BB6
:1027900041D14FF4C062264B6C691B6D4FEA011E9C
:1027A00003F1804303F5C04303EB011C7CB100241B
:1027B000CCF804402C8AD0F88460013424F0010461
:1027C0003444C0F8844042F020024EF80360AB6904
:1027D000BBB16B8A3E2B24D85C1E44F0010401344B
:1027E000640204F47C44CCF80C400133D0F88440FB
:1027F00023F001032344C0F8843042F40052CCF8A3
:1028000008408B0003F1804303F5B8431868114377
:102810001860196070BD002B0CBF4FF400720022CD
:10282000B9E7044C5D1E6D0944EA8524A4B2DAE7D9
:10283000005C00400080FFFF00000000000000007E
:102840002DE9F04FB84C85B0656CEB436E056364C1
:1028500000F13481280500F11581E90404D5B24B5B
:102860009A6C120440F17D81AF0507D5DFF8BC9268
:10287000D9F80430DB680BB1484698472E0444D59C
:10288000DFF8A892DFF8A0A2CB461FE075691C68AC
:102890006A68E8682F6824F47844024424F0F0045D
:1028A00044F40044BF1A1C606A603CD10122B9F8AC
:1028B0000830B4688A4023EA0203A9F808300CB152
:1028C0005846A047DAF844502B041ED505F00F01F6
:1028D0008B0003F180438F1C03F5B84309EB87029B
:1028E000EC0618685668D1D51A6822F4784222F0AE
:1028F000F00242F080021A60020548D5736858461B
:102900009847DAF844502B04E0D4302383F311883D
:10291000874B5B6813F4006340F00E8183F31188EA
:1029200005B0BDE8F08F348AAE68BC4228BF3C4693
:102930003044C5E90204DAF850500A0105F1804537
:1029400005F5C045525905EB01114C6002F10051EB
:1029500001F5405149006CB1013C64080A1D02EBCD
:10296000840400E004320D4630F8026BA2421146A6
:102970002E60F7D11A6822F4F04222F0400282F071
:10298000300242F4004242F080021A609AE740F2BC
:10299000FE30DAF85020D6F818E002F1804202F555
:1029A000C04202EB01129568D46805F10055DEF8CB
:1029B000082005F54055044202944FEA4505C4F34A
:1029C0000908019200F0E5802C46A8F102025208A5
:1029D00005F1040C03920CEB820C019A901C224628
:1029E0001268043400F8022CA4454FEA122200F1C8
:1029F000020000F8032CF2D1039A0198013205EB92
:102A0000820500EB42020192029A02F0010212B129
:102A10002A6801980270DEF80800748A4044CEF8F3
:102A20000800DEF80400BEF80C204044CEF8040094
:102A3000DEF80000013A92B2A0EB08004445AEF87F
:102A40000C20CEF8000000D87AB9012209EB8707E4
:102A50007B688A40DC68B9F80A3023EA0203A9F8E7
:102A60000A30002C7FF42CAF2CE71A6822F4904235
:102A700022F0700282F4405242F4004242F080029E
:102A80001A601FE7284ADFF8A490136C43F008038C
:102A9000136499F80030052B3FF4DFAE0521D9F817
:102AA000042089F8803089F80010136813B10421DC
:102AB000484698470023C9F80830CEE6002602238E
:102AC000DFF868902022314609F10C0089F80030C7
:102AD000C9F87C60C9F80860FDF772FCD9F80430C9
:102AE00089F86460DB684FF0800CB3420CBF4FF490
:102AF0003C474FF43E4740220E4B26653146666404
:102B00004846C4F84CC02764C9F80C30C9F8842082
:102B1000FFF736FED9F804301B68002B3FF49AAE5D
:102B200031464846984795E6005C0040C40F0020B7
:102B300000ED00E00C1E0108EFF309834FF08072F6
:102B4000203BDA6183F30988134A1168D2688968E7
:102B5000926891428CBF114A114A9A6105B0BDE852
:102B6000F08F1A6CDFF83C9022F008021A6499F892
:102B7000001005297FF478AE99F88020D9F8043048
:102B800089F800201B68002B3FF46EAE484698473A
:102B90006AE642463BE700BF50100020630200088F
:102BA00066020008C40F00200000000000000000C2
:102BB0001B4A136843F00103136013689807FCD5A0
:102BC00000201368164903F0F903136050604B6846
:102BD00013F00C0FFBD10B68114A43F480330B60E8
:102BE00013689903FCD553680D4943F4E813536007
:102BF000136843F0807313600B689B01FCD51220AF
:102C0000084A094B4A6018604B68054A43F00203C2
:102C10004B60536803F00C03082BFAD1704700BFD8
:102C20000010024000641D0000200240000000006F
:102C3000294B30B41A6990420ED0026884689168BA
:102C40000025214444682260C2E901414FF0FF326F
:102C500005609A6130BC70471A460024016842F84A
:102C6000101F4A600460196991422ED04FF08044D1
:102C70008A68806802448A60616A988B89B2081AFF
:102C800080B28242E6D9121AB2F57F4F28BF4FF4C4
:102C90007F42022A38BF0222881880B26063606ACD
:102CA00080B2411A89B29142D4D3022201328118F2
:102CB00089B26163616A89B2081A80B2904208D20F
:102CC0005A6B42F001025A63C4E74FF08043DC6064
:102CD000C0E70846EAE700BF5010002000000000EF
:102CE00070B5194C4B1C0546E66886B01CD0174BD6
:102CF0006846CDE90336002305930BF019FF012246
:102D0000E168206881F8285003685C6080F828201A
:102D10002360E060FDF794FA009B13B16846FFF76B
:102D200087FFF06A06B070BD0122206886F828503F
:102D3000036831465C6080F82820E0602360FDF77E
:102D40007FFAF06A06B070BD50100020E113000851
:102D5000F8B5302304460E4683F31188836A13B313
:102D60001E70D4E90A3201339342A36203D20020D9
:102D700080F31188F8BDE2692369043A1A60E268B9
:102D8000D4E90610013AE260002203448B42236139
:102D900028BF636AA26228BF2361236B002BE6D0A1
:102DA00020469847E3E71546114F0AE06268294636
:102DB000C3E90042042013606360FFF791FF00281D
:102DC00008DBE36853B9237A7BB9FB68002DEDD1AA
:102DD0004FF0FF30002383F31188F8BD2269E169C9
:102DE000131D0A44C4E90A32BAE76FF00100F1E7A3
:102DF0005010002000000000000000000000000053
:102E00004FF0FF324430FFF7A3BF00BF00000000C7
:102E10004430FFF79DBF00BF00000000000000002D
:102E2000F8B53023044683F31188836A13B3C26A6A
:102E300013F8016B9342A36204D2002383F3118839
:102E40003046F8BDE2686369013AE2600022E16958
:102E5000A2620B44A16963618B4224BF636A636110
:102E6000236B002BE9D020469847002383F3118879
:102E70003046F8BD0D46124F0AE062682946C3E9A4
:102E80000042042013606360FFF72AFF061ED4DBB4
:102E9000E3685BB9237A83B9FB68002DEDD14FF06D
:102EA000FF36002383F311883046F8BD63691A6842
:102EB00004331A44C4E90A32BAE76FF00106BCE7EA
:102EC0005010002000000000000000000000000082
:102ED0004FF0FF310C30FFF7A3BF00BF0000000030
:102EE0000C30FFF79DBF00BF000000000000000095
:102EF0002DE9F047302481460D4617461E4684F3DF
:102F000011880024DFF81881D9F82810002941D051
:102F1000D9F82C20A7EB040A521A924528BF9246F2
:102F2000BAF1400F46D92B4601F1400AD1F800E032
:102F3000D1F804C08868CA6810315145C3F800E070
:102F4000C3F804C09860DA6003F11003EED1D9F839
:102F50002830D9F82C204033934205F14005C9F8B8
:102F6000283004F1400434D2002383F31188BC429A
:102F70001DD2302383F31188C6E7D9F804203146E7
:102F8000C3E9009204201360C9F80430FFF7A8FEDB
:102F9000002809DBD9F80C30D3BB99F808301BB9ED
:102FA000D8F80C30002EE8D1002383F31188204696
:102FB000BDE8F08728465246FDF78CF9D9F828304D
:102FC000D9F82C20534493425544C9F8283054442E
:102FD000CAD3D9E90621D9F81430D9F80C000B442A
:102FE00093424FF00002C9F8143028BFD9F82430BA
:102FF00000F1FF3028BFC9F81430D9F83030C9F8D3
:103000000C00C9F82820002BAED048469847ABE703
:10301000D9F814100A6804310A44C9E90A1279E798
:103020005010002000000000000000000000000020
:103030004FF0FF330C30FFF75BBF00BF0000000014
:103040000C30FFF755BF00BF00000000000000007B
:103050002DE9F04730250446894617461E4685F37C
:1030600011880025DFF8F080A06A00283AD0E26AD3
:10307000A7EB050A121A924528BF9246BAF1400FF3
:1030800049463ED909F14009D1F800E0D1F804C021
:103090008A68CB6810314945C0F800E0C0F804C028
:1030A0008260C36000F11000EED1A36AE26A40338F
:1030B00093428946A36205F140052DD2002383F394
:1030C0001188BD421AD2302383F31188CCE762689D
:1030D0003146C3E90042042013606360FFF700FE3D
:1030E000002808DBE368002B2FD1237A1BB9D8F81E
:1030F0000C30002EEBD1002383F311882846BDE865
:10310000F0875246FDF7E6F8A36AE26A5344934219
:10311000D144A3625544D1D3E2692369043A1A60C9
:10312000D4E906210B4493424FF00002236128BFEB
:10313000636AE06828BF2361236B0138E060A26204
:10314000002BBBD020469847B8E72069E2690244CB
:103150000430C4E90A028BE7501000200000000090
:103160004FF0FF334430FFF773BF00BF0000000093
:103170004430FFF76DBF00BF0000000000000000FA
:103180002DE9F04140F24D4530260746164CBA6B0A
:10319000BB6C9A60DD60596B11F04502FBD011F0F9
:1031A000050F9A6319D15B6913EA040812D1C3F3BE
:1031B0004323042B0BD0053B022B0BD886F311883D
:1031C00002210820FFF78CFD88F31188DFE74046D5
:1031D000BDE8F0810120BDE8F0813846FDF7E0FC54
:1031E0000120BDE8F08100BF08E0FFFD0000000005
:1031F00038B5302383F311880379022B12D00423CE
:1032000004460025037185F31188FFF7B9FF0222F8
:10321000A36C18B958601860227138BD5D601D60DC
:10322000227138BD002080F3118838BD00000000F5
:10323000F0B51746826C044650681D4643050E469D
:1032400083B04FD44BF68033C0B202304000B3FBA2
:10325000F0F04FF47A7303FB00F050622046FFF762
:103260008FFFD4F844C0002845D10F214FF0FF3E16
:1032700040F22A3045F48862DCF80450236CEE609A
:10328000BE086E602B602B6843F001032B60A36CBB
:10329000C3F838E0D8639F62D96208999960DA6010
:1032A000596B11F04502FBD011F0050F9A6330D134
:1032B00059691C4A01910A400AB32A68204622F043
:1032C0000F022A600E2200249CF80D50DCF800103A
:1032D000AA404A60596B9963DC62FDF761FC0120EA
:1032E00003B0F0BD104850622046FFF749FFD4F804
:1032F00044C00028B9D0A36CDCF80450DDE70121FC
:10330000204601AAFEF7DCF80028E9D0D4F844C032
:10331000F1E72046FDF744FCD4E911C3DCF8045082
:10332000CBE700BF08E0FFFD00366E0100000000A3
:10333000F0B51746826C044650680E4641051D469E
:1033400083B011D44BF68033C0B202304000B3FBDF
:10335000F0F04FF47A7303FB00F050622046FFF761
:103360000FFF40B103B0F0BD2A4850622046FFF77E
:1033700007FF0028F6D1636C4FF0FF3C5B689B2091
:10338000DF6040F22A37226C69024FEA910EC3F8DF
:1033900004E01A601A6842F001021A60236BA26C02
:1033A000DB0658BF7602012DC2F838C0D7639162A0
:1033B000D06220D940F252439660D360516B11F035
:1033C0004503FBD011F0050F93631DD15269124BD9
:1033D0000192134001AE33B9324629462046FEF72A
:1033E0006FF80028BED0204632462946FDF7F8FB8C
:1033F000012003B0F0BD40F251439660D360516BA1
:1034000011F04503FBD0DDE72046FDF7C9FB01AE17
:10341000E9E700BF00366E0108E0FFFD0000000094
:103420002DE9F04103F1FF3C876A8C44BC45064618
:1034300006D9436B012043F080037363BDE8F0813C
:10344000062794071546077121D09846DBB10C4634
:1034500000F14C07884409E028464FF400723946D1
:10346000FCF738FF444505F500750CD021460123D3
:103470003A463046FFF75CFF01340028ECD00523C4
:103480003371BDE8F081052300203371F9E7FFF7C0
:103490004FFF05233371F4E7000000000000000037
:1034A000F0B51446826C054650680F4641051E462D
:1034B00083B011D44BF68033C0B202304000B3FB6E
:1034C000F0F04FF47A7303FB00F050622846FFF7E8
:1034D00057FE40B103B0F0BD2E4850622846FFF7BA
:1034E0004FFE0028F6D14FF0FF3C40F21A306B6CD3
:1034F000296C5B687202DC6041F0100194085C602A
:1035000019601968AC6C41F0010119602B6BC4F8AB
:1035100038C0DB0658BF7F02012EE063A26222D9C9
:1035200040F25943A760E360616B11F04503FBD0A3
:1035300011F0050FA36327D16269174B0192134065
:10354000D3B9992301AF3A4631462846E362FDF7E5
:10355000B7FF0028BED028463A463146FDF740FB6B
:10356000012003B0F0BD4FF48B63A760E360616B93
:1035700011F04503FBD0DBE701AF28463A46314660
:10358000FDF72EFB0120ECE72846FDF709FB01AF14
:10359000E1E700BF00366E0108E0FFFD000000001B
:1035A0002DE9F04103F1FF3C876A8C44BC45064697
:1035B00006D9436B012043F080037363BDE8F081BB
:1035C000072794071546077121D09846DBB10C46B2
:1035D00000F14C07884401E0444514D029464FF4DB
:1035E00000723846FCF776FE214601233A46304603
:1035F000FFF756FF013405F500750028ECD00523D0
:103600003371BDE8F081052300203371F9E7FFF73E
:1036100047FF05233371F4E70000000000000000BD
:1036200001212DE9F047DFF894A04FF03009CAF8E6
:10363000001089F311884FF08047214E786AD6E94F
:103640000823801A80B2841843F100054FF0000867
:10365000C6E9084588F3118889F311880820FFF727
:103660003FFB88F3118889F311887A6A92B288F354
:10367000118805E07B6A9B1A9BB2B3F5FA6F1AD2E8
:1036800089F311887B6AD6E908011B1A9BB2A6460A
:103690001C18AC4641F10005C6E9084588F31188BD
:1036A000744575EB0C03E5D240F20113054AAAF804
:1036B0000430CAF80820BDE8F08700BFF4100020ED
:1036C00050100020B00101080000000000000000C0
:1036D00001232DE9F0414FF08044374E302533600F
:1036E000D4F8248085F3118864210820FFF7F8FAC4
:1036F000002787F31188636A643BA3EB08039BB23E
:10370000022B52D802233360D4F8248085F3118829
:10371000C8210820FFF7E4FA87F31188636AC83BE1
:10372000A3EB08039BB2022B3FD803233360D4F8EA
:10373000248085F31188C8210820FFF7D1FA87F388
:103740001188636AC83BA3EB08039BB2022B2CD8F9
:1037500004233360D4F8248085F311884FF4FA6190
:103760000820FFF7BDFA87F31188636AA3F5FA63AF
:10377000A3EB08039BB2022B17D805233360676ABB
:103780006437BFB285F31188616A791A89B211B1C1
:103790000820FFF7A5FA002383F311884FF0804338
:1037A0005B6ADF1BBFB2022F04D940F20113034A48
:1037B000B380B260BDE8F081F4100020C0010108C0
:1037C0000122F8B5374C384D3023E968226083F385
:1037D0001188CB6B002B36D183F311883026EA6831
:1037E00086F31188D36B002B3DD183F31188EA68EF
:1037F00086F31188D16B01313FD083F31188022306
:10380000642023600BF00CF838BBEF6886F3118856
:10381000FE6B002E33D00023FB6383F31188E6B9DF
:103820003023ED6883F31188EB6B013308D04FF040
:10383000FF3364210B20EB62FFF752FA00282CDBE8
:103840000023EB6311E05A4223EA0200C8631340ED
:10385000002181F31188002BC0D040F20113134ADC
:10386000A380A260F8BD0023D36383F3118840F2E4
:1038700001130E4AA380A260F4E7D363F5E74FF08B
:10388000FF3364210A20FB62FFF72AFA002801DBDC
:10389000FE6BC0E786F31188C2E7002383F311882B
:1038A000F8BD00BFF410002050100020D401010822
:1038B0002DE9F84F3027054687F3118801210820AC
:1038C000FFF70EFA4FF0000A8AF3118887F3118888
:1038D0004FF080435E6AB6B28AF311884FF0010B55
:1038E000D046204C05F1340918E00C23E16820682B
:1038F00081F8283003685C6080F828B02360E060BD
:10390000FCF79EFC88F311884FF080435B6A0AF154
:10391000010A9B1B9BB2B3F5FA6F1BD2E36887F3D6
:103920001188AA6BC3F82CB0C3E90092136095F814
:103930002820AB630E2AD8D1AB69A96885F8288006
:103940001B689A688A42FBD25A682B606A601560CD
:103950005D60CAE700212846FDF73AFE5046BDE803
:10396000F88F00BF50100020000000000000000091
:103970000322C36A2DE9F04302715A68836C12F185
:10398000770F0CBF4FF4806276325A601A6889B0A4
:1039900042F003021A605A68044642F480723021F1
:1039A0005A6081F3118814210820FFF799F9002249
:1039B00082F311884FF48061A36C9A60D9605A6BCE
:1039C0001006FCD580204FF4D5714FF489629863BE
:1039D0009960DA60596B11F04502FBD011F00500D7
:1039E0009A630FD101215A692163C2F303228A42EB
:1039F00042D00022022101205A601A60217109B0D0
:103A0000BDE8F0832046FDF7CBF8002140F2774275
:103A1000A36C9960DA60596B11F04502FBD011F08C
:103A2000050F9A6340F06A8159694F4A0A40002A9B
:103A300000F08C800222642540F241464FF03008AD
:103A40004A4F22639F60DE60596B11F04502FBD044
:103A500011F004099A631BD15A69002AC0F29080C0
:103A6000013DC6D088F3118814210820FFF738F9EA
:103A700089F31188A36CE5E740F277429860DA6039
:103A8000596B11F04502FBD011F0050F9A6304D079
:103A90002046FDF785F8A36CABE75969324A0A4026
:103AA000002AA6D1DFF8C88064252F4EDFF8C49025
:103AB000314F002140F277429960DA60596B11F082
:103AC0004502FBD011F0050F9A63E1D15A693242E9
:103AD0008FD140F26942C3F80880DA60596B11F067
:103AE0004502FBD011F0040C9A63D1D15A69002A27
:103AF00046DB013D3FF47DAF302383F31188D9F8D5
:103B00000C30142102A8CDE90573CDF81CC00BF0D0
:103B10000FF808230122D9F80C10D9F8000081F819
:103B200028300368C3F80490C9F8003080F82820D2
:103B3000C9F80C00FCF784FB029B13B102A8FFF745
:103B400077F8002383F31188A36CB2E74FF4806108
:103B500022639A60D9605A6B1106FCD58022DFF887
:103B60001C809A63A0E700BF08E0FFFD0080FFC053
:103B70000080FF5050100020E1130008000010806A
:103B8000520003D5226B42F010022263002140F262
:103B9000C2429960DA60596B11F04502FBD09A631A
:103BA00011F03F027FF474AF40F24341186AA06005
:103BB000D869E06098692061586960619A60D9604D
:103BC000596B11F04502FBD011F0050F9A637FF499
:103BD0005FAF40F2C9425869A0639860DA60596BE0
:103BE00011F04502FBD08F069A637FF451AF40F28B
:103BF0004742196AA161D969E161996921625969EC
:103C000061629860DA60596B11F04502FBD011F0E7
:103C100005009A637FF43CAF226B596902F00F02F2
:103C2000022A00F0A780616A890F6CD1E06A5968A6
:103C3000406821F4DF61451C08BF4FF4806021F02B
:103C400007010143022A596004F118006FD0FCF704
:103C50004FFEA0624FF400714FF48A62A36C99602A
:103C6000DA60596B11F04502FBD011F0050F9A6331
:103C70007FF40EAF5969714A0A40002A7FF4B9AE49
:103C8000226B12F00E0F02F00F0140F09180E26AF9
:103C90001278002A2ED0012A7FF4ABAE40F2774191
:103CA0005A68A06B22F4C05242F400625A609860D5
:103CB000D960596B11F04502FBD011F0050F9A63E2
:103CC0007FF4E6AE59695D4A0A40002A7FF491AE5E
:103CD000022140F246429960DA60596B11F04502C8
:103CE000FBD011F0050F9A633FD15A69534B134033
:103CF000002B3DD105230020237180E62046FCF7F0
:103D00004FFFA36C96E604F14C0500900623402279
:103D100029462046FFF78CFA50BBB4F858305BBAFE
:103D20009E0763D4226BA36C02F00F027EE7636AE6
:103D3000002B8CDA002508234FF40072204604F192
:103D40004C010095FFF774FA90B994F8223194F879
:103D5000230194F820111B0494F8212103EB006344
:103D60000B4403EB0223A36274E72046FCF718FF21
:103D7000A36C3EE640F2464131489860D960596BE9
:103D800011F04500FBD011F0050F986326D158695A
:103D90002A49014000297FF449AFE06A5968406828
:103DA00021F4DF6121F00701002834D0013848E711
:103DB00002297FF41EAEE26A1278012A36D0022A66
:103DC0002CD0002A96D05A681E4940F2464299608B
:103DD000DA60596B11F04502FBD082E72046FCF710
:103DE000DFFE226BA36C02F00F021FE716480623CA
:103DF0000090402229462046FFF71AFA0028B7D142
:103E000094F85C30226B03F00F030F2B02F00F02CB
:103E1000A36CC2D10AE74FF4806012E75A680B49DD
:103E200022F4C05242F480525A60CEE75A680849E0
:103E300022F4C05242F400625A60C6E708E0FFFD77
:103E40000001B9030000B703F1FFFF800002B703D0
:103E50000001B703000000000000000000000000A7
:103E600010B401244FF0000C0C4B1868D96802689C
:103E7000536080F828401A60D8608C688B6981F89C
:103E800028C01B689A68A242FBD85A6810BCC1E9D6
:103E9000003211605960FCF7D3B900BF5010002008
:103EA00008B5302383F31188002282F3118883F34D
:103EB0001188EFF311825AB9EFF3058283F3118869
:103EC000EFF30583C3F3080333B1002383F31188B1
:103ED000002383F3118808BD044B1A68DB689268DD
:103EE0009B689A42F1D9FFF7BBFFEEE75010002024
:103EF000012370B5474C86B02360EFF311836BB993
:103F0000EFF30583302383F31188EFF30583C3F3C5
:103F10000803002B73D0002383F31188022230237F
:103F2000226083F31188EFF3118262B9EFF3058207
:103F300083F31188EFF30583C3F30803002B54D0F8
:103F4000002383F31188002383F311880323236064
:103F5000EFF3118313B9302383F31188EFF3118347
:103F600013B9302383F31188002383F311880421CC
:103F70003022216082F31188EFF311820AB183F3BA
:103F80001188EFF3118313B1002383F31188052106
:103F9000002230232160009283F31188009B6E463B
:103FA00013B13046FEF744FE00251B4B012130467D
:103FB000CDE9033505950AF0BBFD85F31188302660
:103FC00086F311880A210820FEF78AFE85F31188FE
:103FD00086F31188009B85F3118823B140F2011309
:103FE0000E4AA380A26006B070BD0D4B1A68DB6854
:103FF00092689B689A42A3D9FFF732FFA0E7084B6B
:104000001A68DB6892689B689A4284D9FFF728FF98
:1040100081E700BFF4100020A13E0008E401010880
:104020005010002000000000000000000000000010
:1040300001212DE9F843294C294EE3683022D3F8B9
:104040000880316008EB010582F311885F6C9A6883
:10405000974238D0954236D85D6423689A68E36801
:104060009B689A4201D9FFF7FBFE002383F3118876
:10407000B8452AD1E3689A6895421DD10222326080
:10408000302282F31188D3F844909A68914523D066
:10409000904521D85F6423689A68E3689B689A42D8
:1040A00001D9FFF7DDFE002383F311884D450CD1C4
:1040B000E3689B68984504D040F20113094AB38035
:1040C000B260BDE8F8839D60C6E740F20113064A7E
:1040D000B380B260BDE8F8839F60DBE7501000203A
:1040E000F41000201C020108F80101080000000083
:1040F00002222DE9F8433A4D3A4EEB6832609C6853
:1041000004EB020904F101083022C3F8089082F39D
:1041100011885F6C9A68974244D0904542D8C3F8A2
:1041200044802B689A68EB689B689A4201D9FFF734
:1041300097FE002383F31188BC4236D1EB689A685E
:10414000914539D15A6C90453CD10322E71C32602D
:10415000302282F31188D3F844909A68914537D081
:10416000974235D85F642B689A68EB689B689A42DF
:1041700001D9FFF775FE002383F31188C84514D1D8
:10418000EA6891688F4217D1526C974222D104217C
:104190003022316082F31188EA689460546483F3BA
:1041A000118807E0C3F80880B9E740F201130E4A0E
:1041B000B380B260BDE8F88340F201130B4AB380CC
:1041C000B260F7E740F20113094AB380B260F1E749
:1041D0009F60C7E740F20113064AB380B260E9E787
:1041E00050100020F4100020F80101081C02010802
:1041F0003802010860020108000000000000000011
:1042000038B53023044683F3118815490B687BB118
:1042100000209A699D680860D86283F828001268B7
:104220009168A942FBD25168C3E900210B60536039
:104230000C4B1A68DB6892689B689A4201D9FFF7B9
:104240000FFE002383F31188074BDA6803F1200186
:104250008A4203D22178501CD860117038BD00BF4B
:10426000C41A002050100020F410002000000000AC
:1042700010B5302484F3118864210820FEF730FD46
:10428000002181F3118884F31188134A9368013364
:104290008B4293600CDD114B1A68DB6892689B6857
:1042A0009A4201D9FFF7DCFD002383F3118810BD8A
:1042B00013681C689869146062609C68D96283F80E
:1042C000281000688268A242FBD24268C3E900025B
:1042D00013604360DFE700BF24120020501000206D
:1042E00038B53025044685F3118864210820FEF78F
:1042F000F7FC002383F3118885F31188E36B94F8AE
:10430000282043F001030A2AE36322D00B2A0CD0B1
:10431000124B1A68DB6892689B689A4201D9FFF7D2
:104320009FFD002383F3118838BDE26A32EA03035C
:10433000EED10022A369A168E26284F828201B68FC
:104340009A688A42FBD25A68C4E9003214605C6001
:10435000DEE7E26A1342ECD1DAE700BF501000203A
:1043600030B4154D8268EB689C68C162A2424FF080
:10437000000113D99A6983F82810126891688C4259
:10438000FBD301245168C3E900210B605360194637
:10439000E86080F8284030BCFBF752BF836980F8A2
:1043A00028101B6899688A42FBD930BC5A68C0E95A
:1043B000003210605860704750100020000000006C
:1043C0000122F8B53D4D30262A6086F311883C4C19
:1043D000A368013B002BA36044DB002383F3118817
:1043E00086F31188A36823BB83F31188022230234C
:1043F0002A6083F31188A3680133002BA36021DDB9
:10440000002686F31188302787F31188A368012BD3
:1044100020D186F311880323022129482B600AF05A
:104420004FFA87F31188A368022B13D186F3118802
:10443000F8BD40F2011223490023A960AA8083F34A
:104440001188F8BD2068002103685C602360FFF7D5
:1044500087FFD5E740F201131A4AAB80AA6086F3C2
:104460001188F8BD0520184B6168DF683C607960F1
:10447000FC620F6087F8280018686760D0F800C0F9
:104480003946CCF80430C3F800C080F82820D86042
:10449000FBF7D6FE0023FA6A83F3118886F31188AE
:1044A000A368002BC5D183F31188002A9ED040F267
:1044B0000113064AAB80AA60F8BD00BFF4100020CB
:1044C00024120020800201085010002094020108EC
:1044D000302310B583F311881A4CA368013B002BDD
:1044E000A36018DB002181F31188302383F3118846
:1044F000A36801338B42A36003DD002383F311889B
:1045000010BD206803685C602360FFF729FF00236B
:1045100083F3118810BD05204FF0010C0A4B62682F
:10452000D9680C604A60CC62116081F82800186874
:104530006160026853601A6080F828C0D860FBF799
:104540007FFECFE724120020501000200000000062
:104550002DE9F04730264FF00E094FF00108164FB5
:1045600010E00D2203686B635C6080F828208AF3FA
:104570001188C46A86F311882146FFF7F1FE8AF399
:104580001188BCB186F31188FD684FF0000A2C46F3
:1045900054F8340FA042E4D1386885F828900368B5
:1045A00029465F6080F82880F8603B60FBF748FE92
:1045B000686BD6E7BDE8F0875010002000000000CF
:1045C000F0B5D0E9023400214FF0020C0126D0F8FA
:1045D00004E01C4A43E90CE3D0F810E002F128059E
:1045E00043F874ECD0F814E0006803F8266C03F884
:1045F000271C03F828CC43F8484C43F80C4C124FC6
:10460000D46A43E9051143F8340C43F8405CA3F144
:104610004000A3F11C01A3F12005A3F1740643F8A7
:1046200070EC43F8547C43F8382C43F83C4C43F886
:10463000446C2060D06243E90851A3F1500043F874
:10464000181CF0BD501000205102000800000000AE
:1046500038B58C46302484F3118801214FF0020EC6
:104660000025ACF15004044444F8243C049B84F835
:104670002A1044F8203C00EB0C03C4E90803A4F121
:104680002403E360124B134944F8043C124BA2602C
:10469000A4F828E0E161D96A626403F1280004F11A
:1046A000100261612061A361C4E90F5504F130007B
:1046B0000A6004F13401C4E90C01A16320462946D3
:1046C000DA62FFF74DFE85F31188204638BD00BF42
:1046D00051020008AC020108501000200000000048
:1046E00070B501250026184B82B0DB68174C9A681C
:1046F0004FF4D8712A44164B164800962560FFF7F0
:10470000A7FF0223144A236010600BF011FB134B28
:104710001D689D4211D1AB6843B9032323600BF0A0
:1047200007FB2B68AB4208D19B6823B140F2011311
:104730000B4AA380A26002B070BD40F20113094A87
:10474000A380A26002B070BD50100020F4100020C1
:10475000D144000840120020B01A0020241200208A
:10476000C4020108B40201080000000000000000BB
:10477000302370B583F311881E4BD9680A6B01F1A1
:10478000300C944518BF4FF0000EC86213D191F859
:104790002A202AB30F224FF0010C186881F8282034
:1047A0000268536080F828C01A60BDE87040D86085
:1047B000FBF746BD22461468906996680C6382F840
:1047C00028E000688568B542FBD245686445106002
:1047D00055602A604260EDD191F82A20002AD9D193
:1047E00091F829209207D5D1D1E9042002605060C8
:1047F000D0E700BF501000200000000000000000C3
:104800001E4B70B5D9680A6B01F1300C624518BFB8
:104810004FF0000EC86213D191F82A202AB30F225C
:104820004FF0010C186881F828200268536080F866
:1048300028C01A60BDE87040D860FBF701BD224671
:104840001468906996680C6382F828E000688568AF
:10485000B542FBD245686445106055602A604260ED
:10486000EDD191F82A20002AD9D191F82920920778
:10487000D5D1D1E9042002605060D0E7501000206B
:10488000014B5B6883607047001000E0000000008F
:104890000E4B0F4A5B68926881689B1A5B1A10B4D2
:1048A000D0E90342D21841690261426841F1000136
:1048B0009342026804F1010488BF43609342C0E957
:1048C0000234416110BC38BF03607047001000E043
:1048D000E8100020000000000000000000000000C0
:1048E00083680133002B836000DD7047002103687B
:1048F00010B41C689A69046060609868D96283F893
:104900002810126891688142FBD2516810BCC3E93B
:1049100000210B60536070470000000000000000A1
:10492000302208B582F311888368002B0CDD084B18
:104930001A68DB6892689B689A4201D9FFF790FA7F
:10494000002383F3118808BDFFF7CAFFEFE700BF1C
:1049500050100020000000000000000000000000D7
:104960002DE9F0474FF00108002586B0774C03AEE3
:104970003027CDE90366C4F80080059587F31188D8
:10498000059BAB427ADC85F3118802232946304629
:10499000236009F095FF87F31188059BAB426DDC1E
:1049A00085F311880323DFF8A8912360D9F80C3030
:1049B0004FF4D8719A686748674B0096013AFFF741
:1049C00047FE04232360654B186087F31188059B1D
:1049D000013B002B05936EDB85F3118887F311886B
:1049E000059B002B54DC85F31188052230232260BF
:1049F00083F31188059B002B40F39780D9F80020A2
:104A0000D9F80C3092689B689A4201D9FFF728FACE
:104A1000002383F31188302282F31188059999428B
:104A200041DD83F3118882F311880599012974D13E
:104A300083F311880623236082F31188059B002BE2
:104A40007FDDD9F80020D9F80C3092689B689A4233
:104A500001D9FFF705FA002383F31188302282F38E
:104A600011880599994264DD83F3118882F31188D6
:104A7000059A012A51D183F3118806E040F201130F
:104A8000374AA380A26085F3118806B0BDE8F0879D
:104A900040F2011232490023A160A28083F3118801
:104AA00006B0BDE8F08740F201122E49A280A16055
:104AB00083F31188E9E70522D9F80CA0049BD9F803
:104AC0000000CAF80060CAF80430CAF82C60C3F8C5
:104AD00000A08AF828200368CDF810A05146C3F83A
:104AE000049080F82880C9F80030C9F80C00FBF762
:104AF000A7FBDAF82C2085F3118887F31188059B32
:104B0000002BC5DC85F31188002A3FF46EAF40F21C
:104B10000113154AA380A260B7E740F201121349BE
:104B2000A280A16083F31188AFE73046FFF7D8FE7B
:104B300064E740F201120E49A280A16083F311885C
:104B4000A3E73046FFF7CCFE7BE700BFF410002060
:104B5000501000204012002021490008B01A002007
:104B6000D8020108F8020108E40201080403010860
:104B7000DC0201080000000000000000000000004E
:104B8000F0B48368354CE168002B39D08D689A68A1
:104B9000954207D993F828209D60062A45D0072A18
:104BA00034D0E2B1034603E08A689D68954202D39F
:104BB0001B689842F8D106255A68C1E90032116095
:104BC00001225960C862206881F8285003685C603F
:104BD00080F828202360E060F0BCFBF731BBD3E90C
:104BE00000673E60776083F828209A6912689668AB
:104BF000AE42FBD21A6055685D602B605360D1E70E
:104C00000B6CF0BCC0E9021308647047DD6A5F6892
:104C10001E682A463E60776003E096689F68BE4241
:104C2000E8D312689542F8D1E4E7DD6A5F681E6850
:104C30002A463E60776003E096689F68BE4202D3D2
:104C400012689542F8D156681A605E60336053600E
:104C5000AB688D689A68AA429CD3A3E750100020E5
:104C600010B5302484F311884FF496710820FEF7B4
:104C700037F8002383F3118884F311880948FFF77C
:104C80007FFF0848FCF7E4FB074B1A68DB68926873
:104C90009B689A4201D9FFF7E3F8002383F3118858
:104CA00010BD00BF280800205010002000000000A8
:104CB00038B51F4C3023E56883F311880268C36858
:104CC00082422B642ED0696C4BB11A68934203D098
:104CD0009268914238BF1146DB68002BF5D1A9607C
:104CE0000368196C1A6802605060C0E90231002143
:104CF00018649A69986883F828101268916881424C
:104D0000FBD25168C3E900210B602068E168536061
:104D10008B6882689A4201D9FFF7A2F8002383F3D7
:104D2000118838BD00239360002383F3118838BDB8
:104D300050100020000000000000000000000000F3
:104D400010B53023044683F311880A48FFF718FF93
:104D5000002383F31188084BDA6803F120018A42AB
:104D600003D22178501CD86011700248BDE8104071
:104D7000FFF79EBF18080020F4100020000000007C
:104D800010B5302386B083F311880023164C174AE0
:104D9000E1686846CDE903216421059309F0C8FE66
:104DA00008230122E168206881F8283003685C60EC
:104DB000236080F82820E060FBF742FA009B13B1E3
:104DC0006846FDF735FF002484F31188302383F310
:104DD00011880748FFF7D4FE84F31188044806B011
:104DE000BDE81040FFF764BF50100020E113000839
:104DF0001808002000000000000000000000000073
:104E00002DE9F0413024074684F311882048FFF74C
:104E1000B7FE002383F3118884F311881D4E1E4DC5
:104E2000F468D4F840804046FCF712FB2B46E5625C
:104E300003E09968A268914202D31B68AB42F8D1A3
:104E4000072001255A68F1682360626014605C6085
:104E500081F82800306803685E6080F8285033606D
:104E6000F060FBF7EDF94046FFF78AFE002383F37D
:104E700011880A4BDA6803F120018A4203D239789B
:104E80005019D86011700248BDE8F041FFF710BF1B
:104E9000180800205010002000080020F410002006
:104EA0002DE9F0413024074684F311882748FFF7A5
:104EB00067FE002585F3118884F311882448FFF7E5
:104EC0005FFE85F3118884F31188224E224DF46829
:104ED000D4F840804046FCF7BBFA2B46E56203E07D
:104EE0009968A268914202D31B68AB42F8D10721AE
:104EF00001255A682360626014605C60F468306861
:104F000084F82810036821465E6080F828503360DA
:104F1000F060FBF795F9E36A013302D04046FFF7F2
:104F20002FFE002383F311880C4BDA6803F1200174
:104F30008A4203D23978501CD86011700448FFF7B8
:104F4000B7FEBDE8F0410148FFF7B2BE28080020D7
:104F5000180800205010002000080020F410002045
:104F600010B53023044683F311880A48FFF708FE82
:104F7000002383F31188084BDA6803F120018A4289
:104F800003D22178501CD86011700248BDE810404F
:104F9000FFF78EBE28080020F4100020000000005B
:104FA00002232DE9F047394D394CEA6823609668B1
:104FB000384B82B006F101094A4600934FF4D8718C
:104FC000354B3648FFF744FB354F364B06F1020AA6
:104FD0000093524638604FF4D871334B3348FFF793
:104FE00037FB03234FF030087860236088F3118883
:104FF0002F48FFF7C5FD002787F31188EB689B68F2
:105000009E423AD10423236088F31188C8210820E6
:10501000FDF766FE87F31188EB689B6899452CD1F4
:105020000523236088F311882248FFF7A9FD87F341
:105030001188EB689B6899451FD10623236088F38C
:105040001188C8210820FDF74BFE87F31188EB6813
:105050009B689A4511D1072316482360FFF728FE65
:10506000EB689B68994508D1082311482360FFF736
:105070001FFEEB689B689E4204D040F201130E4A6B
:10508000A380A26002B0BDE8F08700BF50100020EE
:10509000F410002018030108814D00084012002080
:1050A000B01A00201C030108614C0008F013002016
:1050B0001808002028080020200301080000000034
:1050C00002232DE9F0415A4E5A4DF2683027D2F8AA
:1050D00008802B6087F31188574CA3684BB10023DD
:1050E00083F3118840F20113544AAB80AA60BDE8F3
:1050F000F081F268116CA2601464E16083F311889E
:1051000003222A6087F31188A268002A65D083F3FE
:105110001188042320462B60FFF7CAFDA368002BEB
:1051200069D12268A2426CD105212960F1688968A1
:1051300088454CD10621296087F3118891680029A0
:10514000CED1F368186C93601A64D06081F3118833
:1051500087F311889368002B5CD081F3118887F363
:105160001188F7683B6C23B31A68D8689342386497
:105170004DD0106818604360106C9A60D86013645A
:105180009068936982F828101B68D3F808C084459A
:10519000FAD258681360506002605A603B6C002B72
:1051A000E2D17B6C3268BB609268934201D2FEF719
:1051B00057FE002383F31188A368E3B92368A34251
:1051C0001FD10722F3682A609B6898458FD040F270
:1051D00001131B4AAB80AA6089E7F368196C1C6451
:1051E000C4E9023182F3118840F20113154AAB8001
:1051F000AA60BDE8F08140F20113134AAB80AA60B7
:1052000075E740F20113114AAB80AA606FE799601D
:105210000346C4E7F168086C0A64C2E9021083F32C
:10522000118840F20113074AAB80AA605FE700BF14
:1052300050100020F4100020180800203803010846
:10524000200301084803010854030108B4020108BF
:105250000368984234D0F0B4002605E0BCF10B0F8F
:1052600029D01B68984224D0DA680A43DA6011B169
:105270001A691142F5D0D3E90124D56B92F828C000
:105280002C43BCF10A0FD463E8D1D56A2C42E8D094
:1052900094699768D66282F828602468A568BD4240
:1052A000FBD21B6865689842C2E900452A606260CB
:1052B000DAD1F0BC7047D56A35EA0404D1D1E7E70A
:1052C000704700BF00000000000000000000000068
:1052D000F8B500EB81039C6ADCB105460E4630232D
:1052E00083F311880821201DFFF7B2FF05EB860329
:1052F000D86843691B686BB9A26D616D91423AD061
:105300003146284652F8043BFBF782FB002383F327
:105310001188F8BD226DA16D01322265226E04F163
:1053200044070A44E16DA2658A4228BFA26E616CFF
:1053300028BFA2658F42E0D04FF0000CD1F800E00A
:10534000C4F844E0CEF804708F69D1F808E0C1F8E1
:105350002CC081F828C03F68D7F808C0F445FAD2BD
:10536000D7F804C00F60C1F804C0CCF80010796011
:10537000616D9142C4D1216D0029C1D0002BC5D0EF
:10538000028A013A1340C1D13146284605F1740220
:10539000FBF73EFBBAE700BF000000000000000082
:1053A000113138B550F8214094B1302383F311887E
:1053B000D4F88C241368527903EB8203DB689B6971
:1053C0005D6835B920460AF093FE002383F3118807
:1053D00038BD04216018FFF73BFFE369616A1D6077
:1053E000A06AA26903448B42E36128BF236B02F1E8
:1053F000010228BFE361E368A26104F10C029A4252
:10540000E0D000211868E06042609A699868D9622B
:1054100083F82810126891688142FBD25168C3E971
:1054200000210B605360CDE7000000000000000089
:10543000F8B5052952D8DFE801F0035161030352A2
:10544000302383F31188674C237D1BB194F84C30D3
:10545000002B40D102216448FFF7FAFE0123E168E6
:1054600008308142237517D06FF0010C00270B46DE
:1054700009689A699E68E1604860C3F82CC083F8A7
:10548000287012689568B542FBD255688142C3E91D
:1054900000252B605360EAD10123616C534884F8E6
:1054A0004C30814217D06FF0010C00270B46096881
:1054B0009A699E6861644860C3F82CC083F82870BC
:1054C00012689568B542FBD255688142C3E9002550
:1054D0002B605360EAD1002383F31188F8BD302399
:1054E00083F311883F4C0121201DFFF7B1FE0023FB
:1054F000237584F84C3083F31188F8BD05463023BA
:1055000083F3118800263A4A3A4B3B49354C0161F6
:105510000121C2E90066C2E90266C3E90066C3E987
:105520000266FDF72DF9354B354A28460221C3E9BD
:1055300000666A61C3E90266FDF722F9204650F869
:105540000C1F236B8142C4E90733C4E90D66A661D1
:1055500016D06FF0010C0B4609689A699F68E160EC
:105560004860C3F82CC083F8286012689568BD4273
:10557000FBD255688142C3E900252B605360EAD114
:10558000D4E919230027616C1848C4E91533814216
:10559000C4E91B772265277516D06FF0010C0B4606
:1055A00009689A699E6861644860C3F82CC083F8F2
:1055B000287012689568B542FBD255688142C3E9EC
:1055C00000252B605360EAD100250748012184F8AB
:1055D0004C50FFF73DFE04380AF08AFD85F3118830
:1055E000F8BD00BF340B0020380B0020780B0020E2
:1055F000C0110020D0110020301E0108E011002051
:10560000541E01080000000000000000000000001F
:10561000302370B583F31188154C00211548FFF72E
:1056200017FE2268E36892689B689A4201D9FEF7E8
:1056300017FC002585F31188302686F31188642134
:105640000820FDF74DFB85F3118886F311880A4881
:105650002946FFF7FDFD2268E36892689B689A423D
:1056600001D9FEF7FDFB002383F3118870BD00BF55
:1056700050100020080800200C0800200000000046
:105680002DE9F041302304468846174683F31188FC
:105690002C4D00F1180609E0E0693946C3E90060C5
:1056A00003600420E361FDF71BFB68B9237D83B928
:1056B000D4E900122369501AB3EBA00F10D1EB68A4
:1056C000002FE9D14FF0FF30002383F31188BDE8AC
:1056D000F0816FF00100002383F31188BDE8F081B1
:1056E000A5680133281D8242226AA060C5F80080A7
:1056F00098BFA16004F120019142236111D00020E4
:1057000015689369256294686960D06282F8280000
:105710001B689968A142FBD25968C2E900310A604E
:105720005A60084B1A68DB6892689B689A4207D9EE
:10573000FEF796FB0020002383F31188BDE8F0817B
:105740000020C1E750100020000000000000000011
:105750002DE9F04104460F469046254E00F1200504
:105760000CE023698BB9606AF3684146C3E90050D5
:10577000036004206362FDF7B3FA20B9237D002B98
:10578000EFD06FF00100BDE8F081E168013B0A1D38
:105790000968E2603960616823618A4228BF226833
:1057A00004F1180128BFE260A269914211D00020E3
:1057B00015689369A56194686960D06282F82800D1
:1057C0001B689968A142FBD25968C2E900310A609E
:1057D0005A60074B1A68DB6892689B689A4204D942
:1057E000FEF73EFB0020BDE8F0810020CBE700BFC4
:1057F0005010002000000000000000000000000029
:105800002DE9F843394ECF1D002818BF0646302336
:105810000D46FF0806F1140883F311884046FFF790
:10582000AFF9002383F31188F36806F10C010BB97B
:1058300018E01346586803F10F0C2CF0070C421CBB
:1058400003EBC202ACF1080E724507D96446A2EB25
:105850000C0CB7EBEC0F4FEAEC0913D91A68194698
:10586000002AE6D14046FFF723FA34683CB108220B
:10587000F8001146A047044608B140E902652046F9
:10588000BDE8F883734518D3B84229D09E46013746
:1058900003EBC70404F10800121A1868D21043F889
:1058A000370062600C6003F108044046CEE90065F1
:1058B000FFF7FEF92046BDE8F88303F10802AEEBDE
:1058C0000202D210B9455A60EFD9FA43186801377D
:1058D0000EEBC7014A444A604EF837001960E4E70E
:1058E0001C469E4654F8083B0B60DEE71C11002066
:1058F000F0B5174687B008220D461E46FFF780FF19
:105900000446C0B10C9B054404930D9B029505937E
:10591000CDE900700396302383F311886846FEF7C3
:105920004FFE0123002180F829300446FEF718FDC0
:10593000002383F31188204607B0F0BD000000006B
:10594000F8B550E902730733DB0807F10C05302284
:10595000064640F8043C1437A0F1080482F311888D
:105960003846FFF70DF9002383F311882B469D423B
:105970001A6801D0A34202D21AB1944201D313464D
:10598000F5E746F8082C56F8042C1C6056F8081C5D
:10599000013204EBC20081420AD059684A1C03EB71
:1059A000C202944211D03846BDE8F840FFF780B9F2
:1059B0004868024446F8042C0A68596846F8082CDE
:1059C0004A1C03EBC2029442EDD156E902020132B5
:1059D0001144C3E900013846BDE8F840FFF768B953
:1059E000D0E90432002113605A6081F3118890F8E5
:1059F000293003F00303012B0DD0022B0AD1836C55
:105A0000026A302080F31188186810601A6081F3F0
:105A1000118870477047006AFFF792BF00000000CE
:105A200038B51B4B30210446DA6881F3118890F8B1
:105A300028100F2911D04FF0090C0125016B1160BE
:105A4000D9680263186881F828C0026853601A6038
:105A500080F82850D860FAF7F3FB0022E56A82F359
:105A60001188302383F3118894F82A30013B84F89D
:105A70002A30A36A03F0FF130F2B03D082F311889F
:105A8000284638BD2046FFF7ABFF284638BD00BF8B
:105A90005010002000000000000000000000000086
:105AA0002DE9F0434FF00109384D394BEA6883B0D6
:105AB0009268DFF8E08000934FF4D871364B013ADA
:105AC0003648C8F80090FEF7C3FD354C30232060FF
:105AD00083F311880323EE68286886F8283003686A
